:020000040800F2
:10000000E8080020790200081737000801350008C9
:100010001537000869220008113A000800000000A6
:100020000000000000000000000000001B37000876
:100030009524000800000000193700081D3700084B
:10004000930200089302000893020008930200083C
:10005000930200089302000893020008930200082C
:10006000930200089302000893020008930200081C
:10007000930200089302000893020008930200080C
:1000800093020008930200089302000893020008FC
:1000900093020008930200089302000893020008EC
:1000A00093020008930200089302000893020008DC
:1000B00093020008930200089302000893020008CC
:1000C00093020008930200089302000893020008BC
:1000D00093020008F9390008053A00089302000865
:1000E000930200089302000893020008930200089C
:1000F000930200089302000893020008930200088C
:10010000930200089302000893020008930200087B
:10011000930200089302000893020008930200086B
:10012000930200089302000893020008930200085B
:1001300000F002F800F090F80AA090E8000C824469
:100140008344AAF10107DA4501D100F085F8AFF246
:10015000090EBAE80F0013F0010F18BFFB1A43F0A5
:1001600001031847D03C0000F03C0000103A24BFC7
:1001700078C878C1FAD8520724BF30C830C144BF0C
:1001800004680C607047000000230024002500264E
:10019000103A28BF78C1FBD8520728BF30C148BFEA
:1001A0000B6070476E2900F08683702900F0F1849F
:1001B000662903F0AF85652903F0AC85672903F054
:1001C000A985612903F0A88503681B0A28BF41F0AF
:1001D0008001692900F0BA80642900F0B780752990
:1001E00000F0B4806F2900F07E84782900F0BD848F
:1001F000E92900F01984E42900F01684F52900F0BB
:100200001384EF2900F07B84F82900F0BC84036894
:10021000DB0928BF41F08001632900F0888373293E
:1002200000F08D83E32901F0E980F32901F0EE80ED
:10023000002070471FB501F0F9FA040000200021EA
:1002400003F052FD401C60600020002103F036FDE9
:10025000E0601FBD10B510BD01F0BAFA1146FFF7FE
:10026000E9FF03F00FFC01F097FB03B4FFF7F2FF87
:1002700003BC03F0F9FB0000094880470948004728
:10028000FEE7FEE7FEE7FEE7FEE7FEE7FEE7FEE746
:10029000FEE7FEE704480549054A064B70470000A3
:1002A0007D37000831010008E8020020E80800203E
:1002B000E8040020E8040020704700001CB50C464C
:1002C000064B7B4469460090204600F00EFB044636
:1002D0000020694600F01CFB20461CBD4B060000B8
:1002E0000FB4044910B503AA029800F02DFB10BC0E
:1002F0005DF814FB1800002070B50C460546012A75
:1003000005D02878800600D5EA69002302E00123A1
:1003100005E05B1C934202D2E05C0028F9D1A86999
:10032000E618C01AA861286A18442862284600F016
:1003300030FA04E0D5E9012114F8010B9047B442EA
:10034000F8D3284600F03BFA70BD00002DE9F041DB
:100350000646002410687529314616A510D000F015
:100360003FFA002802DA404213A507E031688A0705
:1003700001D512A502E0490704D511A5012401E029
:1003800000F037FA00210A2206F1240709E0B0FB49
:10039000F2FCB0FBF2F302FB1C003030785418463C
:1003A000491C0028F3D123462A463046BDE8F041D7
:1003B00000F028BA000000002D0000002B00000013
:1003C000200000002DE9F05F894604464FF0000A46
:1003D000DFF874B1FB44C0F820A02046E1688847EC
:1003E000002874D0252806D0D4E901219047206A3E
:1003F000401C2062F1E700265F462046E1688847FE
:100400002028054607DB312D05D2781910F8200C7D
:1004100008B10643F1E7B00701D526F00406C4F899
:100420001CA00027C4F818A02A2D09D0284603F0E4
:1004300014FB38B304EB8708303DC8F8185019E0B6
:1004400059F8041B204604EB87029161E168884754
:10045000012F054618D1E069002820DA26F0200691
:100460001DE0D8F8180000EB800005EB40003038A4
:10047000C8F818002046E1688847054603F0EDFA01
:100480000028EED1012F0AD02E2D08D12046E16898
:1004900088477F1C0546022F46F02006C4DBA06972
:1004A000002803DA404246F00106A061F00701D0BF
:1004B00026F010066C2D0BD0682D09D04C2D39D0AC
:1004C0006A2D35D0742D35D07A2D33D016E038E032
:1004D000E1682F4620468847B842054609D16C2F6F
:1004E00026D04FF48060E1680643204688470546E1
:1004F00004E06C2F1AD04FF4807006430DB3A5F1C1
:100500004100192802D8203546F400664A4629469B
:10051000204626604E46FFF745FE80B101280BD0ED
:10052000F61D26F0070000F1080956E74020E4E731
:100530008020D8E70020D6E706F104094DE72846D9
:1005400052E7206ABDE8F09F5C3900000FB400B5A7
:100550008DB010A9099000910B904FF0FF300A90D8
:1005600000200C90064878440690064878446A4675
:1005700007900F9909A800F02BFB0DB05DF814FB54
:10058000870600009F0600002DE9FF5F1D464FF023
:10059000FF3B91464FF000085F46D5E90146A96947
:1005A00001987F1C8847296A824688470028F6D12F
:1005B000BAF1FF3F0CD0002E24F4C06419DD6006B0
:1005C00014D5BAF12B0F09D0BAF12D0F0ED103E0DB
:1005D000584604B0BDE8F09F44F48064A9690198CE
:1005E0007F1C8847761E8246002E02DDBAF1300F4E
:1005F00003D0B9F1000F26D032E0A969761E019828
:100600007F1C44F400748847002E824605DDBAF151
:10061000780F06D0BAF1580F03D0B9F1000F10D0FF
:100620001EE0B9F1000F02D0B9F1100F18D1A9697D
:10063000761E01987F1C24F400748847824610209F
:1006400002E0082000E00A20814609E0A96908FBD1
:100650000908761E01987F1C44F40074884782467E
:10066000002E05DD4946504600F09EFA0028EDDADE
:10067000E96901988847A00502D46FF00100A8E756
:10068000E00725D1600613D5600502D5C8F100004A
:1006900000E0404629680A1D2A600968220501D544
:1006A000087015E0220701D5088011E008600FE00E
:1006B0002868011D29600068210502D580F80080A6
:1006C00006E0210702D5A0F8008001E0C0F8008014
:1006D00038467EE730B505460B462A4613F8014BEF
:1006E00012F8010B08B1A042F8D01CB1002802D0CA
:1006F0006D1CF1E7284630BD4FF000020429C0F020
:10070000128010F0030C00F01B80CCF1040CBCF143
:10071000020F18BF00F8012BA8BF20F8022BA1EB95
:100720000C0100F00DB85FEAC17C24BF00F8012B7A
:1007300000F8012B48BF00F8012B70474FF0000272
:1007400000B5134694469646203922BFA0E80C50C7
:10075000A0E80C50B1F12001BFF4F7AF090728BFA2
:10076000A0E80C5048BF0CC05DF804EB890028BF1E
:1007700040F8042B08BF704748BF20F8022B11F047
:10078000804F18BF00F8012B7047704770477047C3
:10079000704770B5044685690068C10601D53026EA
:1007A00000E02026C00707D070BDD4E90121304603
:1007B0009047206A401C20626D1EF6D570BD70B552
:1007C000044685690078C00707D170BDD4E90121CE
:1007D00020209047206A401C20626D1EF6D570BD17
:1007E00009684A0501D540B27047C905FCD500B279
:1007F000704709684A0501D5C0B27047C905FCD5E4
:1008000080B270472DE9F0470D469946924604465E
:1008100000F124080168880604D5E06921F0100180
:10082000216000E00120A84201DD471B00E0002715
:10083000A1697A1902EB0900081AA0612078C006A4
:1008400002D42046FFF7A5FF002608E0D4E90121E5
:100850001AF806009047206A401C761C20624E451C
:10086000F4DB2078C0060AD52046FFF792FF06E0A9
:10087000D4E9012130209047206A401C2062381EB4
:10088000A7F10107F4DC07E0D4E9012118F805001D
:100890009047206A401C2062281EA5F10105F3DC68
:1008A0002046FFF78CFF2078000602D50220BDE825
:1008B000F0870120FBE711680268006A530501D543
:1008C00008700AE0D30501D5088006E0130603D5B9
:1008D000C217C1E9000200E0086001207047000073
:1008E00001694A1C02610878704700B58FB0CDE9F4
:1008F00001310021059105497944CDE903101146E4
:100900006846FFF75FFD0FB000BD0000E5FFFFFF89
:100910000A6802F8010B0A60704710B5436913B109
:10092000AFF3008001E0FFF7E7FC012010BD127873
:1009300000F124010A7000224A700122EDE71168DB
:100940004FF0FF32E9E70000074B70B50D467B44DE
:10095000FFF7CBFF0446284600F016FF10B14FF01A
:10096000FF3070BD204670BD1B3100002DE9FF5FD8
:1009700015468A460446DFF8AC80F8440027D8E9DB
:1009800000103E46CDE9001010E03AF816106A4615
:1009900002A800F0FDFE411C07D02178890603D58E
:1009A000E269391891420DD80744761C20788006F8
:1009B00002D5E069B84205DDAE42E6DB3AF8160042
:1009C0000028E2D1A069C01BA0612046FFF7E1FE2C
:1009D000D8E90010CDE90010002017E03AF818100F
:1009E0006A4602A800F0D4FEB0F1FF3F81460BD06A
:1009F00000250DF1080B05E0D4E901211BF80500E5
:100A000090476D1C4D45F7D308F10100B042804678
:100A1000E4DB206A384420622046FFF7D0FEBDE8C0
:100A2000FF9F0000CA3300002DE9F0418046D21D2F
:100A300022F007020025D2E90002F52915A614D0FC
:100A4000011E72F1000106DA0023D0EB030063EB14
:100A5000020211A608E0D8F800108B0701D50FA6F6
:100A600002E0490701D50EA601251146002408F130
:100A7000240704E000F0DCF830323A55641C50EAF8
:100A80000102F7D12B46324621464046BDE8F041EF
:100A9000FFF7B8BE000000002D0000002B00000092
:100AA0002000000030B4002100F1240408E002F02E
:100AB0000705D208303542EA4372DB086554491C09
:100AC00052EA0305F3D10468002310A2250707D5D5
:100AD000A40600D421B1C46901230DA2641EC4611F
:100AE00030BCFFF78FBE10B5044621461068FFF7F3
:100AF00080FE02462046BDE810400023D2E7D21D0A
:100B000022F00701D1E90023CCE70000000000003B
:100B100030000000F0B40D460188090502D5214CD3
:100B20007C4402E01F4C7C440E34002100F124067A
:100B300008E002F00F071209E75D42EA03721B09A1
:100B40007754491C52EA0307F3D1027800231207B5
:100B500004D5702D06D009B1022311342246F0BC11
:100B6000FFF750BE01231034F8E770B504460D4678
:100B700021461068FFF73DFE024629462046BDE8A3
:100B800070400023C6E7D21D22F00703D3E90023FB
:100B9000C0E70368126843F0200303600823C361C1
:100BA0000023B7E72C3200003A2800D2303820F07A
:100BB0002002412A01D3A2F13700884201D34FF02D
:100BC000FF3070470268114413780160184670477F
:100BD000D160054979445161044979441162002189
:100BE0001161114600F016BCEDFFFFFFDD000000B3
:100BF000426842B1016811F8013B23B1521EC0E9BD
:100C00000012184670470121C160881E7047426873
:100C10005AB1C368016843B983688B4205D0491E45
:100C2000521CC0E90012002070474FF0FF3070479F
:100C300030B5B0F10A024FEA900E71F100034EEAAE
:100C4000817EB0EB0E0061EB91014FEA101E4EEA7F
:100C5000017E10EB0E0041EB11114FEA102E4EEA0F
:100C6000016E10EB0E0041EB11214FEA104E4EEADF
:100C7000014E10EB0E0041EB1141401841F1000113
:100C80004FEAD00040EA41704FEAD10110EB8005F5
:100C90004FEA810444EA907444EB01046D1944EB7B
:100CA0000404521BA3414FF0000348BF0A3200D591
:100CB00030BD401C41F1000130BD10B5044600F0CC
:100CC000ADFD0068005D00F0010010BD70472DE92A
:100CD000FF4F0C461E464FF0FF378BB0D2E90001A4
:100CE000DDF860800A908A46C1F30A5505B93D4691
:100CF000002108464FF00000BAF1000F00F4400058
:100D000005DA00EB80004FF4400101EA50004FEAA1
:100D10009059B9F1010F00DDB9460A9850EA4A002E
:100D20000ED044F61050A5F2FF3545432F14B8F10C
:100D3000000F1ED07542291E1EDDC9F100021CE005
:100D4000B8F1010F4FF0000001D0302103E0F24371
:100D500005E02154401CB042FBDB3046002200215C
:100D600021540B99C1F80880C1E900200FB0BDE8FB
:100D7000F08FBD1B6D1CDEE74A4600DA694206A80B
:100D800000F098FD06AB93E8070003AB83E807008B
:100D900050460A9900F04EFE8DE80700A0F500507D
:100DA0001F3800900398002D0ADD42F21F014A46C9
:100DB0000844002303A90390684601F0B7F809E04E
:100DC000A0F500504A461F38002303A90390684647
:100DD00001F0C1F88DE807000004000C03D04FF0CB
:100DE000FF30410800E01046B8F1000F03D00022A8
:100DF000009215461EE0751E05D4FFF719FF30322C
:100E000062556D1EF9D5B3460122084302D0002277
:100E10007F1C04E02078302801D100227F1E002AA8
:100E2000099784D01DE0112D07DAFFF701FF30325A
:100E300062556D1C50EA0102F5D1084302D00098BA
:100E4000C8B10EE00021681E05E0235C625C6354BB
:100E50002254401E491C8142F7DBAB46A81B401EB2
:100E60000990002004F80B000B98099AC0F808803C
:100E7000C0E9002B7AE711264FF0000857E72DE96B
:100E8000F04F88460446D21D22F0070191B0D1E907
:100E90000001CDE90A0102F0BCFD02460B98C00F2B
:100EA00001D02D2007E02068810701D52B2002E02A
:100EB000202101EAC000032A099001D0072A05DB9E
:100EC00003464146204600F0B5FC0BE12078800641
:100ED00001D5E06900E00620B8F1650F814606D033
:100EE000B8F1660F18D0B8F1670F70D131E000206B
:100EF000B9F1110F009001DB112301E009F10103A9
:100F00000AAA01A90CA8FFF7E2FEDDE90C70002691
:100F100009F10105834647E001204B4600904FF060
:100F200000470AAA01A90CA8FFF7D1FEDDE90DB020
:100F30000C995D46002610B909F101000D18B9EBB6
:100F4000050003D4C0F1FF3609F10105A5EB090046
:100F50002BE0B9F1010F01DA4FF001090020B9F1DE
:100F6000110F0090484601DD112300E003460AAA54
:100F700001A90CA8FFF7ABFEDDE90C704D46002679
:100F80008346207800070AD4AB4500DA5D4601A805
:100F9000012D04DD411911F8011C302907D04F45FE
:100FA00002DA17F1040F04DA012082460FE06D1E09
:100FB000EEE7002F02DCED1B3E4403E0781CA84264
:100FC00000DD7D1CB81B00F1010A4FF000472078BE
:100FD000000703D4AA4501DB4FF0FF3A0021B7F127
:100FE000004F0DF143088DF8431024D002202B232D
:100FF000002F01DA7F422D230A21021EA0F10100F9
:1010000000DC5FB197FBF1FC97FBF1F201FB1C7C6C
:1010100017460CF1300C08F801CDEEE7A8F10100FD
:1010200003702188090501D5452100E06521A0F163
:10103000010800F8011C09980FA9A1EB0807FF1D82
:1010400000B10120411901EBEA70A1693844081A86
:10105000401EA0612078C00602D42046FFF799FB0D
:10106000099828B1D4E901219047206A401C2062E8
:101070002078C00622D52046FFF78BFB1EE0002E0D
:1010800004DBB34502DD01A8805D00E03020D4E937
:1010900001219047206A401C2062761CAAF10100C1
:1010A0005FEA000A0AD100F0C1FBC0680168405C39
:1010B000D4E901219047206A401C2062281EA5F136
:1010C0000105DCDC07E0D4E9012118F8010B9047A9
:1010D000206A401C2062381EA7F10107F3DC20467D
:1010E000FFF76DFB032011B041E600002DE9F04F42
:1010F00004460D46D21D22F0070089B0D0E90097C2
:101100004846394602F085FC0246F80F01D02D23EF
:1011100007E02068810701D52B2302E0202101EAA6
:10112000C0038DF820300BB1012000E00020032A1D
:10113000824601D0072A04DB2946204600F07AFBCC
:101140003FE12078800601D40D2500E0E569C7F372
:101150000A560D2D49DA00214FEA175B08464FF079
:101160000000002F00F4400007DA00EB80004FF48D
:10117000400100EBD07001EA60008115012901DD1A
:101180004FF0FF3100224FEA850CBCF1180F06D357
:101190001346ACF118004FF08052C24003E04FF408
:1011A000801323FA0CF30CF10C0CBCF1200F04D3C8
:1011B000ACF1200C09FA0CF001E007FA0CF0002960
:1011C0004FF0004801DD18B90FE00ED140450CD3B7
:1011D00019EB02095F4121B9404502D19F4329EA39
:1011E0000209BBEB175F00D0761C2088000502D5F2
:1011F0007B48784402E07A487844193808AA3023BA
:1012000002F80A30037C0AF10101002E0AF1020AF9
:1012100053546A4602DC4FF0300101E04FF03101D7
:101220004FF001088DF8001002D0A6F2FF3603E05F
:1012300059EA470100D06B4E002D02DC21780907E6
:1012400004D54FF002082E218DF80110C44600216C
:101250000BE0C7F303433F01C35C491C6D1E02F85A
:101260000830052908F1010801DA002DF1DC002120
:101270000CE000EB1973491C1B786D1E082902F85D
:1012800008304FEA091908F1010801DA002DF0DCF5
:1012900021688B0602D516E0A8F10108E04505DDBE
:1012A00002EB080313F8013C302BF5D0B8F1000F26
:1012B00009DD02EB080313F8013C2E2B03D10907CB
:1012C00001D4A8F10108002D05DD3E2102F8081027
:1012D0006D1E08F10108407C002E02F8080008F19C
:1012E000010804DA2D20764202F8080002E02B20E3
:1012F00002F808000A214FF47A70864208F10108CA
:101300000BDB96FBF0F3303302F8083096FBF0F37A
:1013100008F1010800FB136601E0642E0CDB642079
:1013200096FBF0F3303302F8083096FBF0F308F147
:10133000010800FB136601E00A2E06DB96FBF1F0C4
:10134000303002F8080008F1010896FBF1F001FBCB
:101350001060303002F80800A16908F1010808EBBC
:10136000050202EB0A00081AA0612078C00602D428
:101370002046FFF70EFA216A08AE01EB0A00206250
:1013800004E0D4E9012116F8010B9047BAF1010AF3
:10139000F7D22078C00602D52046FFF7FAF96E464C
:1013A00009E016F8010B3E280FD0D4E9012190473F
:1013B000206A401C2062B8F10108F2D22046FFF7F3
:1013C000FEF909B00320BDE8F08F206A28442062AE
:1013D00003E0D4E90121302090476D1EEBD3F8E7FC
:1013E000952B000002FCFFFF10B5436913B1AFF36A
:1013F000008001E0FFF7BAFA012010BD128800F169
:10140000240182840022C2840122EDE711684FF09A
:10141000FF32E9E72DE9F34F4FF0000A0C4656463C
:101420008DB001200C9001F10C000B9062690B98BB
:1014300001219047051E2DD0252D2CD0216A8847EB
:10144000C0B162690B9801219047216A8847002842
:10145000F7D16269411E0B98904700E0761CA169A4
:101460000D988847216A88470028F7D1E1690D98CF
:101470008847DBE7A1690D988847A842074601D154
:10148000761CD3E7E1690D9888477F1C02D1BAF139
:10149000000F6FD06CE162690B9800273D4639461A
:1014A00090472A2804D162690B98012190470125B1
:1014B000DFF8D08262690B9801219047A0F13001DA
:1014C0000A290AD24745E5DC07EB870100EB410713
:1014D000303FDFD445F01005ECE7E90601D46FF0AA
:1014E00000476C280AD04C2814D0682815D06A28E8
:1014F0000DD074281CD07A281AD01DE062690B9890
:10150000012190476C2802D045F0040514E045F015
:1015100002050DE045F020050AE062690B98012103
:101520009047682802D045F0080505E045F40065BD
:1015300062690B9801219047C4E9015765283DD0A5
:1015400019DC58287AD00CDC452837D004DC252853
:1015500026D041289ED131E046282FD0472899D166
:101560002CE05B2877D0612828D063287CD06428C1
:1015700023D15AE0F7E06F2848D008DC66281DD058
:1015800067281BD0692821D06E2816D127E0702843
:1015900045D0732868D0752847D078280DD14DE004
:1015A000A1690D988847252805463FF469AFE16990
:1015B0000D9888476D1C3FF46AAFD9E00D9923461A
:1015C0006A466FF00100AFF30080C6E045F04000CE
:1015D00023464FF000026060A80736D43EE0E807DB
:1015E0007FF447AF2068011D21600068290501D5FF
:1015F00006701BE7290701D5068017E7A90703D561
:10160000F117C0E9006111E706600FE745F04000FF
:1016100023464FF008026060A80716D41EE040F68B
:101620000E0125EA0100606016E045F04000234607
:101630004FF00A026060A80707D40FE045F04000B1
:101640006060A80708D5234610220D996FF00100AD
:10165000AFF3008081E007E0102223460D996FF080
:101660000100FEF791FF78E04FF0000963284F4634
:10167000C8464B46CB4602D05B2807D039E02079DC
:10168000C00601D40120A060012732E06269D4F8CD
:101690000CB00B98012190475E2807D14FF001094B
:1016A00049466269D4F80CB00B989047216939B962
:1016B00000210A4603AB43F82120491C0829FADB24
:1016C000D8B3216949B308F1010862690B98012177
:1016D00090475D28F4D1B9F1000F09D0002003A98B
:1016E00051F82020D24341F82020401C0828F7DB85
:1016F00003AB2069002820794FEA40701ED05B467A
:101700002246CDF80080CDE901970D9900286FF0B1
:10171000010020DAAFF300801FE0C11703AA00EB3D
:10172000D1614B1121F01F0102EB8302411A1368B2
:101730000120884003431360C7E719E00D99224652
:1017400000286FF00100009702DAAFF3008004E098
:10175000AFF3008001E0AFF3008000280ADA401CFC
:1017600006D10C9820B14FF0FF300FB0BDE8F08FDC
:101770005046FAE7E90701D10AF1010A06440020C0
:101780000C9053E6CCCCCC0C007B00F08000704772
:1017900070B516460C46054600F040F8036893F80D
:1017A0000101012806D0FF2C0FD8185D68B1012077
:1017B0002C7070BDD3F807013246214603F207139F
:1017C00003442846BDE8704018474FF0FF3070BD15
:1017D000754600F0EBF8AE4605006946534620F02A
:1017E0000700854618B020B5FEF754FDBDE820403F
:1017F0004FF000064FF000074FF000084FF0000BCD
:1018000021F00701AC46ACE8C009ACE8C009ACE87F
:10181000C009ACE8C0098D467047000010B500F063
:1018200005F8001D10BD00BFC1240000004870472E
:10183000A40200202DE9F0411F460446032601685A
:10184000072A01F4006004DB08B116A505E016A51F
:1018500003E008B115A500E015A521F010002060F7
:10186000A069C01EA0610FB1401EA0612046FEF716
:1018700090FF4FB1D4E9012138469047206A401CBF
:101880002062C01C206206E0206AFAE7D4E9012148
:1018900015F8010B9047761EF8D22046FEF78FFF11
:1018A000BDE8F0814E414E006E616E00494E46002B
:1018B000696E66002DE9F047814616468AB03548C4
:1018C00078440DC88DE80D0032487844801C03AC84
:1018D0000DC884E80D0041F69B300844372190FB89
:1018E000F1F290FBF1F5A5F1800501FB12041B3C20
:1018F00002D56442012000E00020DFF898A0804675
:101900000027FA44AAF1BE0A0EE0E0070AD03246E8
:10191000684607EB470101230AEB810100F01BFB3E
:101920008DE8070064107F1C002CEED1194F7F4416
:10193000AE3F19E0E80715D007EB04100DF1180AC7
:1019400090E80E008AE80E00C068F04201D19819B4
:1019500008903246012306A903A800F0FCFA03AB65
:1019600083E807006D10641C002DE3D14FF00103E4
:1019700032466946B8F1000F03A802D000F0D6FA4B
:1019800001E000F0E8FAC9E90001C9F808200AB04E
:10199000BDE8F0875825000010B50446AFF300807D
:1019A0002046BDE81040FEF760BC000000487047CC
:1019B000840200204FF0013C50F8042B51F8043B06
:1019C0009A4221D1A2EB0C03934313EACC1317D113
:1019D00050F8042B51F8043B9A4215D1A2EB0C03AA
:1019E000934313EACC130BD150F8042B51F8043B6A
:1019F0009A4209D1A2EB0C03934313EACC13DBD038
:101A00004FF00000704700BFD01A01BAB1FA81F15F
:101A100001F0180122FA01F0CB40C1F12001DBB244
:101A2000C0B2C01A2CFA01F3D11A914311EAC311C2
:101A3000E6D170475FEA400C08BF91F0000F4FEA13
:101A40008C234FEAC12243EA51514FEA1C5018BF80
:101A500000F5F0404FEA300018BF41F000415FEA66
:101A60006C5C00F02980BCF1FF3F08BF40F0804073
:101A70007047130C06BF12044FF0100C4FF0000C0F
:101A8000130E04BF12020CF1080C130F04BF120155
:101A90000CF1040C930F04BF92000CF1020CD30F55
:101AA00004BF52000CF1010C11464FF00002A0F1EE
:101AB0001F00A0EB0C00704711F0004F08BF7047EB
:101AC00031F000413FF4D5AF0B0C06BF09044FF0D5
:101AD000100C4FF0000C0B0E04BF09020CF1080CA7
:101AE0000B0F04BF09010CF1040C8B0F04BF89001C
:101AF0000CF1020CCB0F04BF49000CF1010CCCF12E
:101B00002003A0EB0C0022FA03F302FA0CF241EAE4
:101B1000030100F10100704720F07F4C80EA0300D0
:101B200023F07F47ACEB070303F57C5300F0004044
:101B300003F1FF032DE980494FEA154B09B44FEA41
:101B4000144325EA0B4E24EA03480FF2042606EB61
:101B5000132749083E785FEA320203FB0667C7F5A0
:101B6000000707FB06F64FEA54374FEAD64606F160
:101B7000020607FB066CCCF1005C4FEA1C472CEA1E
:101B8000074C07FB06F40CFB06F504EB15464FEA81
:101B9000961634BF00204FF000404FEAD13706FBC5
:101BA00007FC4FEA1C4C0CFB0BF7D21B03FB0CF79A
:101BB00061EB07010CFB0EF7B0EB074072EB17422D
:101BC0000CFB08F734BFA2EB0742B2EB074261EB14
:101BD00017414FEA0C444FEA910706FB07FC4FEA16
:101BE0001C4C0CFB0BF7B0EBC74072EB573203FBFE
:101BF0000CF734BFA2EBC742B2EBC74261EB5731DF
:101C00000CFB0EF7B0EBC70072EB57720CFB08F73A
:101C100034BFA2EBC702B2EBC70261EB5771039F5F
:101C20004FEA816141EA921104EBCC044FEAD137CB
:101C30004FEA826206FB07FC42EA90124FEA80609C
:101C40004FEA1C4C0CFB0BF7D21B03FB0CF761EBB0
:101C500007010CFB0EF7B0EB074072EB17420CFBD1
:101C600008F734BFA2EB0742B2EB074261EB174122
:101C70004FEA8C554FEA910704EB9C2406FB07FCC6
:101C80004FEA1C4C0CFB0BF7B0EBC74072EB573222
:101C900003FB0CF734BFA2EBC742B2EBC74261EBC8
:101CA00057310CFB0EF7B0EBC70072EB57720CFB11
:101CB00008F734BFA2EBC702B2EBC70261EB577162
:101CC00015EB4C254FEA816141EA92114FEA82629D
:101CD0004FEAD13742EA901206FB07FC44F10004B8
:101CE0004FEA80604FEA1C4C0CFB0BF7D21B03FB46
:101CF0000CF761EB07010CFB0EF7B0EB074072EB42
:101D000017420CFB08F734BFA2EB0742B2EB0742C5
:101D100061EB174115EB1C154FEA813141EA924105
:101D20004FEA823242EA90424FEA80304FEA0C7624
:101D300044F1000448EA03434EEA0B484FF0000E1A
:101D4000B2EB080C71EB030724BF624639464EEB39
:101D50000E0E4FF0000B0018524149414BEB0B0B9C
:101D6000B2EB080C71EB03077BF1000B24BF62465A
:101D700039464EEB0E0E4FF0000B00185241494110
:101D80004BEB0B0BB2EB080C71EB03077BF1000B79
:101D900024BF624639464EEB0E0E51EA020718BFC9
:101DA00046F0010616EB0E7655F1000254F10001E3
:101DB00003D5BDE88901BDE80088BDE88901BDE81B
:101DC0000048B619524141EB0101A3F101037047EC
:101DD00080807F7E7D7C7B7A797877767675747368
:101DE000727171706F6E6E6D6C6C6B6A6A69686827
:101DF000676666656464636362616160605F5F5EBD
:101E00005E5D5D5C5C5B5B5A5A5959585857575632
:101E10005655555554545353525252515150505097
:101E20004F4F4F4E4E4D4D4D4C4C4C4B4B4B4A4AE9
:101E30004A4949494848484747474746464645452D
:101E40004544444444434343434242424241414166
:101E5000002B9C4630D477002BD01CB54FEA3707B7
:101E600003B44FF010004FF01001BAF1000F06D08C
:101E7000BCF1000FDCBF40F0080040F008014FF05B
:101E800000000FBCBDE810400BF1010BBBF1010FCE
:101E900008BF5FEA170722BF12F1010211F1010129
:101EA0004FF0004143F1000300F0004043EA00001E
:101EB0007047F9D35708D0E746EA064613F1400FBA
:101EC0004FEA16461FDD13F1200FDFBF16430A4607
:101ED000002120335B42BED0C3F1200746EA06460C
:101EE00002FA07F74FEA164646EA0706C3F120074B
:101EF00022FA03F201FA07F721FA03F14FF0000387
:101F000042EA0702A7E746EA020646EA06464FEA21
:101F1000164646EA0106BCBF46EA0646360C4FF0B6
:101F200000034FF000024FF0000194E72DE9804CD0
:101F30009A46934670B491E8380007C831EA400CDD
:101F400048BF34EA430C03D5FFF7E6FDFFF780FFF7
:101F5000F0BCBDE8008C2DE9804C9A46934670B4E5
:101F600091E8380007C810F0804F08BF13F0804F89
:101F700003D100F005F8FFF76BFFF0BCBDE8008C63
:101F800020F07F4780EA030023F07F4C07EB0C032F
:101F9000A3F57C5300F00040A3F1FE0392F0000F84
:101FA00000F0B38095F0000F00F077802DE9014933
:101FB0004FEA11404FEA144621EA004800FB06FCB4
:101FC00024EA064708FB06F607FB08F800FB07F7BC
:101FD00018EB06484CEB164C4FEA124B18EB07482F
:101FE0004FEA15464CEB174022EA0B4E0BFB06FC62
:101FF00025EA06470EFB06F607FB0EFE0BFB07F76E
:102000001EEB064E4CEB164C4FF000061EEB074E37
:102010004CEB174B18EB0B0840F1000018EB0E0BC4
:1020200058EB000840F100008F1A4FF000013CBF50
:10203000C943661B14BFB5EB040C00213CBFC94368
:10204000F61B4FEA17444EEA8E0E27EA04454FEA84
:102050001C4704FB07622CEA074C05FB07F70CFB47
:1020600005F604FB0CFC16EB074642EB174216EB99
:102070000C4642EB1C421BEB060658EB02024141A8
:1020800046EA9E0601D5BDE80189B619524141EBE9
:102090000101A3F10103BDE801894FEA14454FEAAC
:1020A000114724EA054621EA074C05FB07F406FB25
:1020B00007F70CFB06F105FB0CFC11EB074144EBA9
:1020C00017444FEA124711EB0C4144EB1C4422EA3F
:1020D000074C05FB07F206FB07F70CFB06F605FBB2
:1020E0000CFC16EB074642EB174216EB0C4642EB94
:1020F0001C456A1854F1000148BF7047B619524197
:1021000041EB0101A3F10103704795F0000F37D0B7
:102110004FEA11424FEA144721EA024624EA074CEB
:1021200002FB07F106FB07F70CFB06F402FB0CFCB5
:1021300014EB074441EB17414FEA154714EB0C44ED
:1021400041EB1C4125EA074C02FB07F506FB07F7AC
:102150000CFB06F602FB0CFC16EB074645EB17459D
:1021600016EB0C4645EB1C42121951F1000148BF19
:102170007047B619524141EB0101A3F101037047C9
:102180004FEA14454FEA114724EA054621EA074C75
:1021900005FB07F106FB07F70CFB06F24FF0000604
:1021A00005FB0CFC12EB074241EB174112EB0C4212
:1021B00051EB1C4148BF7047921841EB0101A3F15C
:1021C0000103704710B504A0FEF78AF8BDE810407F
:1021D0004FF4FA7000F01CBB4154490D0A00000096
:1021E00070B514A0FEF77CF84FF4FA75284600F09D
:1021F0000FFB124912A001F0C3FA17A10F48FEF716
:1022000069FA164C0D4E20600DE000BF00F0EEF8AC
:1022100013A0FEF765F8284600F0FAFA0EA1301D6B
:10222000FEF758FA20600028F0D0BDE8704000F0BA
:10223000DDB800004154450D0A00000034000020C4
:102240002041545F636865636B205278427566660F
:102250006572205B25735D004F4B00002C00002051
:1022600041540D0A00000000FEE7000070B511A007
:10227000FEF736F84FF4FA75284600F0C9FA10A1B7
:102280001348FEF727FA134C0CE000BF00F0AEF83D
:1022900008A0FEF725F8284600F0BAFA08A10C4875
:1022A000FEF718FA20600028F0D0BDE8704000F07A
:1022B0009DB8000041542B4350494E3F0D0A000089
:1022C0002B4350494E3A20524541445900000000EA
:1022D000340000202C0000201CB50020009001904C
:1022E00010A0FDF7FDFF4FF4FA7000F091FA1049CD
:1022F00010A001F045FA16A10D48FEF7EBF950B118
:1023000001AB6A4614A10A48FEF720F9DDE9001284
:1023100015A001F035FA00F069F84FF47A7000F07A
:1023200077FA1CBD41542B4353510D0A00000000A5
:1023300034000020204353515F636865636B205273
:1023400078427566666572205B25735D000000004B
:102350002B4353513A2000000D0A2B4353513A208E
:1023600025642C2564000000204353515F63686599
:10237000636B2063737120256420637371322025A1
:102380006400000070B500F031F80FA0FDF7A8FF61
:102390004FF4FA7000F03CFA0FA11248FEF79AF9D8
:1023A000114C4FF47A75206007E0284600F030FAAF
:1023B00009A10C48FEF78EF920600028F5D0BDE891
:1023C000704000F013B8000041542B4D49504F505D
:1023D000454E3F0D0A0000002B4D49504F50454ED1
:1023E0003A000000340000202C00002010B5064AFE
:1023F00000200146054C137802E02154401CC0B275
:102400009842FAD3117010BD000000203400002063
:1024100070B5FFF7EBFF0FA0FDF762FF40F6B83095
:1024200000F0F6F915A11948FEF754F9184C4FF4CD
:102430007A75206007E0284600F0EAF90FA11348FA
:10244000FEF748F920600028F5D0BDE87040FFF79E
:10245000CDBF000041542B4D49504F50454E3D31AA
:102460002C2C2234372E39322E3131372E3136335F
:10247000222C33303030302C300D0A002B4D495097
:102480004F50454E3A20312C3100000034000020DE
:102490002C0000207047000070B514A0FDF720FF4D
:1024A0004FF4FA75284600F0B3F913A11548FEF76A
:1024B00011F9154C0CE000BFFFF798FF13A0FDF7D2
:1024C0000FFF284600F0A4F90BA10E48FEF702F911
:1024D000206011A10B48FEF7FDF86060D4E900010F
:1024E0000843E9D0BDE87040FFF780BF41542B435B
:1024F000455245473F0D0A002B43455245473A2078
:10250000302C3100340000202C00002041542B439B
:10251000475245473F0D0A002B43455245473A2055
:10252000302C350072B6FEE710B523A001F028F973
:10253000FFF75CFF26A001F023F9FFF751FE2AA068
:1025400001F01EF9C82000F063F9FFF7C5FE2CA0CA
:1025500001F016F9C82000F05BF9FFF7BDFEC820B6
:1025600000F056F9FFF7B8FEC82000F051F9FFF768
:1025700029FEC82000F04CF9FFF778FEC82000F0D3
:1025800047F900F049F8C82000F042F9FFF784FF4E
:10259000C82000F03DF900F0B5FFC82000F038F980
:1025A00000F0E6FFC82000F033F9FFF795FEBDE824
:1025B0001040C82000F02CB9466962636F6D5F4C13
:1025C0003631305F696E6974203030300D0A00009A
:1025D000466962636F6D5F4C3631305F696E697456
:1025E0002031310D0A000000466962636F6D5F4C57
:1025F0003631305F696E69742032320D0A00000096
:10260000466962636F6D5F4C3631305F696E697425
:102610002033330D0A00000070B514A0FDF760FEF2
:102620004FF4FA75284600F0F3F813A11548FEF7A9
:1026300051F8154C0CE000BFFFF7D8FE0BA0FDF7DA
:102640004FFE284600F0E4F80BA10E48FEF742F8D2
:1026500020600EA10B48FEF73DF86060D4E9000150
:102660000843E9D0BDE87040FFF7C0BE41542B439A
:10267000475245473F0D0A002B43475245473A20F2
:10268000302C3100340000202C0000202B43475216
:1026900045473A20302C350010B590F82110002223
:1026A000022905D00421816380F82020012010BD7B
:1026B00001680B6823F00E030B6001680B6823F0C0
:1026C00001030B6090F84030C46B012101FA03F361
:1026D000636080F8211080F82020104610BD0000B3
:1026E0002DE9F05F90F821100024022903D0042185
:1026F0008163012485E001680A6822F00E020A6005
:1027000001680A6822F001020A603F4E3E4FB2158E
:10271000DFF8F4C0DFF8F090DFF8ECA0DFF8E8B005
:10272000DFF8E4E00168783F13011502ACF1640CB6
:10273000A9F15009AAF13C0AABF1280BAEF1140E35
:102740004FF48018B14227D9B9420ED0614512D05A
:1027500049451DD0514518D0594518D0714501D172
:10276000424615E0294EB14201D1012210E0274E28
:102770001436B14201D110220AE0244E2836B1426B
:1027800006D0224A3C32914201D11A4600E02A4644
:102790001E49091F0A602BE0B94213D0614517D0CA
:1027A000494522D051451DD059451DD0714501D113
:1027B00042461AE0B14202D14FF0807215E0134E4A
:1027C000B14201D1012210E0104E1436B14201D1C4
:1027D00010220AE00D4E2836B14206D00B4A3C3298
:1027E000914201D11A4600E02A46074980394A60E1
:1027F000012180F82110002180F82010416B01B1E7
:1028000088472046BDE8F09F80000240080402404F
:1028100070B5044600F010F90546601C02D004486B
:102820000078044400F008F9401BA042FAD370BDC0
:102830001C0000202DE9F84FDFF8C891002409F1B1
:10284000040A0AF1040B23460F270BF1040ED1E012
:102850000125A54006EA0502AA4276D1DFF8A8C103
:102860004E68A6EB0C0866452BD00DDC032E34D049
:1028700005DC36B3012E19D0022E2FD11BE0112E0C
:1028800016D0122E2AD119E0B8F5881F19D006DC0F
:10289000B8F5803F15D0B8F5801F1FD111E0B8F50D
:1028A000001F0ED0B8F5041F18D10AE0CB6815E060
:1028B000CB681B1D12E0CB6808330FE0CB680C33EC
:1028C0000CE08B682BB1012B4FF0080303D045615E
:1028D00004E0042302E0056100E00023FF2A01D8A0
:1028E000064601E000F104064FEA840501D9A5F18E
:1028F0002005D6F8008007FA05FC28EA0C0803FA40
:1029000005F548EA0508C6F800804D68ED0070D569
:102910003E4DAE6946F00106AE61AD6924F0030696
:1029200005F0010500953A4D06EB050CDCF8085062
:10293000A607360F07FA06F825EA0805DFF8D4805F
:10294000404503D14FF0000825E052E0DFF8C88091
:10295000404502D14FF001081DE0DFF8C08040453E
:1029600002D14FF0020816E0DFF8B480404502D1F2
:102970004FF003080FE0DFF8AC80404502D14FF084
:10298000040808E0DFF8A080404502D14FF00508B8
:1029900001E04FF0060808FA06F848EA0508CCF806
:1029A00008804D68D9F80060ED034D4601D5164307
:1029B00000E096432E604D68DAF80060AD0355469E
:1029C00001D5164300E096432E604D68DBF80060A9
:1029D000ED025D4601D5164300E096432E604D683A
:1029E000DEF80060AD02754601D5164300E096435F
:1029F0002E60641C0A681646E2407FF429AFBDE8E9
:102A0000F88F000000040140000011100010024087
:102A10000000014000080140000C0140001001408E
:102A20000014014000180140001C01400AB101617E
:102A300070470904FBE70000014880687047000008
:102A40001C000020024881680278114481607047B0
:102A50001C000020074810B5016841F0100101601A
:102A6000032000F079F80F2000F006F800F024F8B9
:102A7000002010BD0020024070B50D4D04464FF4FB
:102A80007A712878B1FBF0F00A490968B1FBF0F0DF
:102A900000F0F0FA48B9102C07D200222146501E4F
:102AA00000F03AF800206C6070BD012070BD00009D
:102AB0001C000020280000200E4808B5816941F064
:102AC00001018161816901F001010091C16941F059
:102AD0008051C161C06900F080500090052000F075
:102AE0003BF80548416821F0E06141F080714160A8
:102AF00008BD00000010024000000140002809DB72
:102B000000F01F02012191404009800000F1E02007
:102B1000C0F8001170470000F0B40E4B1B680C4663
:102B2000C3F30223C3F10705042D00D90425191DA1
:102B3000072901D2002300E0DB1E012606FA05F179
:102B4000491E214099409E40761E16403143F0BCFC
:102B500000F073BF0CED00E0064900F007020868C2
:102B60004FF6FF03184040EA0220034A1043086072
:102B7000704700000CED00E00000FA052DE9F04779
:102B80000F46050061D0434E306800F00700B842A0
:102B900009D2306820F0070038433060306800F018
:102BA0000700B84251D128683B4C810712D5400735
:102BB00003D5606840F4E06060602878000703D5C2
:102BC000606840F4605060606068A96820F0F000C0
:102BD000084360602878C00728D06868012810D0B2
:102BE0002168022810D0890700292EDA616821F0B7
:102BF000030101436160FFF71FFF804641F28839FE
:102C00000DE021688903EFE78901EDE7FFF714FF85
:102C1000A0EB0801494502D90320BDE8F0876068B0
:102C2000696800F00C00B0EB810FEFD1306800F064
:102C30000700B8420BD9306820F0070038433060F5
:102C4000306800F00700B84201D00120E5E728789D
:102C5000400705D56068E96820F4E06008436060DB
:102C60002878000706D56068296920F4605040EA9A
:102C7000C100606000F038F86168084AC1F30311D0
:102C8000515CC8400649086006480068FFF7F4FE3A
:102C90000020C2E700200240001002401C3D000856
:102CA00028000020200000200448054900684968E9
:102CB000044AC1F30221515CC8407047280000203B
:102CC000001002402C3D000804480549006849688E
:102CD000044AC1F3C221515CC8407047280000205B
:102CE000001002402C3D000812A185B00FC98DE8EC
:102CF0000F0014A0144A006804905168134801F0B2
:102D00000C03042B10D0082B0ED1C1F38343C9034D
:102D10001DF803000AD5516804AAC1F34041515C73
:102D20000A4A5043B0FBF1F005B0704708494843E8
:102D3000FAE7000002030405060708090A0B0C0D58
:102D40000E0F1010010200000010024000127A0065
:102D500000093D002DE9F84F040070D02078C04DE7
:102D6000C00749D06868C0F38100012807D06868AF
:102D7000C0F38100022809D16868C00306D528681D
:102D8000800339D560680028E7D035E06068B0F589
:102D9000803F0BD010B1B0F5A02F11D0286820F4DF
:102DA00080302860286820F4802002E0286840F401
:102DB00080302860606890B1FFF73EFE06460AE06A
:102DC000286840F480202860F0E700BFFFF734FE59
:102DD000801B642873D828688003F7D50CE0FFF7C0
:102DE0002BFE064605E000BFFFF726FE801B642889
:102DF000F0D828688003F7D420789A4E80074FF0E7
:102E000001094FF0000839D5686810F00C0F07D0A1
:102E10006868C0F38100022809D16868C00306D43D
:102E20002868800714D52069012808D110E020699E
:102E3000B0B1C6F80090FFF7FFFD074605E00AE1D4
:102E4000FFF7FAFDC01B0228C4D828688007F7D511
:102E50002868616920F0F80040EAC10028600DE0B0
:102E6000C6F80080FFF7E8FD074604E0FFF7E4FD41
:102E7000C01B022823D828688007F7D420780007D1
:102E80002CD57948A169D9B1C0F80090FFF7D4FDDD
:102E9000074604E0FFF7D0FDC01B02280FD8686A80
:102EA0008007F7D571484FF4FA510068B0FBF1F094
:102EB000009000BF0098411E0091FAD20EE080E021
:102EC000C0F80080FFF7B8FD074604E0FFF7B4FD47
:102ED000C01B022875D8686A8007F7D4207840079D
:102EE00060D5E8690027C00008D4E86940F0805048
:102EF000E861E869012700F0805000905C480168B3
:102F0000C90513D40168834641F480710160FFF75D
:102F100093FD824606E000BFFFF78EFDA0EB0A009E
:102F200064284ED8DBF80000C005F5D5E06801281C
:102F30000AD008B1052813D0286A20F001002862C1
:102F4000286A20F0040002E0286A40F001002862AC
:102F5000E06841F2883B98B1FFF76EFD82460BE0D6
:102F6000286A40F004002862EEE700BFFFF764FD26
:102F7000A0EB0A0159455AD8286A8007F6D50CE01B
:102F8000FFF75AFD824605E0FFF756FDA0EB0A0168
:102F900059454CD8286A8007F6D41FB1E86920F05B
:102FA0008050E861E06988B36968C1F38101022952
:102FB00044D00228C6F8608004D0FFF73DFD0446E7
:102FC00038E034E0FFF738FD074604E0FFF734FD52
:102FD000C01B02282BD828688001F7D4206AB0F5DE
:102FE000803F05D16868A16820F40030084368601C
:102FF000D4E908010843696821F474110843686042
:10300000C6F86090FFF718FD044606E025E000BF13
:10301000FFF712FD001B022809D828688001F7D5A8
:103020001BE000BFFFF708FD001B022802D90320A8
:10303000BDE8F88F28688001F4D40EE00128F7D0AD
:103040006868226A00F48031914204D1616A00F418
:103050007010884201D00120EAE70020E8E7000074
:10306000001002400000424280044242280000203A
:103070000070004010B5401EB0F1807F01D30120E8
:1030800010BD4FF0E02460610F21601700F0D5FC07
:103090000020A06107202061002010BD704770470C
:1030A000F8B5026804461068D168536910F00F0F34
:1030B0004FF0000553D003F0010601F49077374339
:1030C0005FD0C20705D0CA0503D5226C42F00102C9
:1030D0002264420705D5DA0703D0226C42F00202CF
:1030E0002264820705D5DA0703D0226C42F004027D
:1030F0002264020707D501F02002324303D0226C7C
:1031000042F008022264226C002A34D0800604D5E2
:10311000880602D5204600F069FB20684069216CD2
:10312000C0F38010090700D430B3204600F046FBFE
:103130002068416949061BD5416921F04001416180
:10314000A06BA8B158494163A06BFFF7C9FA0028EA
:1031500011D0A06B416B01B0BDE8F0400847830679
:103160000FD58B060DD52046BDE8F84000F03EBBDC
:103170002046FFF794FFF8BD2046FFF790FF256437
:10318000F8BD266B2023012E52D1C60650D5CE069F
:103190004ED5106850680090506940062AD5A16B42
:1031A000086840680004000CEAD0A68D8642E7D982
:1031B000E0858869202818D0D06820F48070D0601D
:1031C0002068416921F0010141612068416921F0D5
:1031D0004001416184F83E3025632068C16821F0D8
:1031E0001001C160A06BFFF757FAA08DE18D401A66
:1031F00081B219E0A08DE18D401A81B2E08D0028E6
:10320000BED00029BCD0D06820F49070D060206877
:10321000426922F00102426184F83E302563206851
:10322000C26822F01002C2602046FFF737FFF8BDE7
:1032300005062BD50D0629D594F83D002128F6D199
:10324000A068B0F5805F01D12069B0B1206A411C4F
:103250002162216800784860E08C401E0004000C68
:10326000E084E4D12068C16821F08001C160206859
:10327000C16841F04001C160F8BD206A0088C0F318
:1032800008005060206A801C2062E5E74006F3D504
:103290004806F1D5D168204621F04001D16084F87C
:1032A0003D3000F02CF9F8BDAD37000870B50400D2
:1032B00004D094F83D00002510B106E0012070BD57
:1032C00084F83C50204600F023F8242084F83D0088
:1032D0002068C16821F40051C160204600F0E2FA84
:1032E0002068016921F4904101612068416921F061
:1032F0002A0141612068C16841F40051C160256420
:10330000202084F83D0084F83E00002070BD0000BD
:1033100070B586B0002400940194029403942E4E5C
:1033200003682E49022003222D4DB34226D18B691A
:1033300043F480438B618B6903F4804304938B696E
:1033400043F004038B618969039201F00401049145
:103350000102CDE9001069462846FFF76BFA2815EF
:10336000CDE90004694628460294FFF763FA01227A
:1033700000212520FFF7D0FB252028E0194EB3427D
:1033800027D1CB6943F40033CB61CB6903F400331D
:1033900004938B6943F004038B618969039201F004
:1033A000040104910421CDE9001069462846FFF785
:1033B00041FA0820CDE90004694628460294FFF747
:1033C00039FA002211462620FFF7A6FB2620FFF738
:1033D00095FB06B070BD00000038014000100240AF
:1033E000000801400044004090F83E30202B0ED1F0
:1033F00059B152B190F83C30012B08D0012380F82C
:103400003C300023036300F0A9BA0120704702207A
:10341000704700000068084988420CD107480949F4
:10342000074B027808781A54401C0870012203499F
:103430000548FFF7D9BF7047003801401000002051
:103440003400002000000020FC0100202DE9F8439A
:10345000044690F83D001F4616460D4620284CD1E4
:10346000C5B1BEB194F83C00012846D0012084F8D3
:103470003C004FF00008C4F84080212084F83D0053
:10348000FFF7DAFAA6848146E684A068B0F5805F8B
:1034900003D004E00120BDE8F883206928B12E465E
:1034A0005FF0000584F83C800EE00026FAE78021FA
:1034B000204600F06EFAA0B9AEB116F8010B2168F3
:1034C0004860E08C401EE084E08C4B464FF00002E8
:1034D00000970028EBD14FF04001204600F059FA48
:1034E00030B10320D7E735F8020BC0F30800E6E758
:1034F000202084F83D000020CDE70220CBE7704774
:10350000FEE7000070B511A0FCF7EAFE4FF4FA7573
:103510002846FFF77DF913A11348FDF7DBF8134C9C
:103520000CE000BFFEF762FF08A0FCF7D9FE2846BA
:10353000FFF76EF90BA10C48FDF7CCF820600028CE
:10354000F0D0BDE87040FEF751BF000041542B475A
:10355000545345543D22495052464D54222C300D6F
:103560000A0000004F4B0000340000202C00002017
:1035700070B51DA0FCF7B4FE40F6B8342046FFF746
:1035800047F91FA0FCF7ACFE2046FFF741F920A148
:103590002248FDF79FF8224D4FF4FA66286018E0A4
:1035A000FEF724FF1FA0FCF79BFE3046FFF730F923
:1035B0000DA0FCF795FE2046FFF72AF910A0FCF7B6
:1035C0008FFE2046FFF724F911A11448FDF782F879
:1035D00028600028E4D04FF47A70FFF719F9BDE8AD
:1035E0007040FEF703BF000041542B6D69706361AA
:1035F0006C6C3D312C2263746E6574220D0A0000E0
:1036000041542B6D697063616C6C3F0D0A000000C2
:103610002B4D495043414C4C3A203100340000209E
:103620002C00002041542B6D697063616C6C3D303F
:103630000D0A000030B585B00024184800940194AC
:1036400002940394816941F010018161816901F064
:1036500010010491816941F004018161816901F0E7
:1036600004010491816941F00801816180690C4D78
:1036700000F008000490002220212846FFF7D6F928
:10368000202000900120CDE901040220039069462A
:103690002846FFF7CFF805B030BD0000001002400B
:1036A000000C01400C4810B50A4901604FF4E131AB
:1036B0004160002181600C22C160C0E90412816177
:1036C000C161FFF7F3FD002803D0BDE81040FEF70D
:1036D00029BF10BD00380140FC0100200C4810B586
:1036E0000A4901604FF4E1314160002181600C2200
:1036F000C160C0E904128161C161FFF7D7FD0028F4
:1037000003D0BDE81040FEF70DBF10BD00440040DF
:1037100040020020FEE7FEE770477047FFF792B9CE
:1037200030B58FB028216846FDF708F814210AA8A3
:10373000FDF704F801210804CDE9001000240294EB
:1037400002250491CDE90750000109906846FFF772
:1037500001FB08B172B6FEE70F20CDE90A054FF470
:103760008060CDE90C4001210AA80E94FFF706FA0B
:10377000002801D072B6FEE70FB030BD70470000E0
:103780000FB410B5C0B043AA68464299FCF796FD45
:1037900084B20223224669460348FFF757FE40B031
:1037A000204610BC5DF814FB4002002010B5406AB2
:1037B0000021C185C184FFF772FC10BD0168CA6891
:1037C00022F49072CA6001684A6922F001024A61DB
:1037D000016B012904D10168CA6822F01002CA6095
:1037E000202180F83E1000210163704708B590F851
:1037F0003E10222901D0022008BD82684FF4805378
:103800009A4201D1016921B1816A9A421BD04AB121
:103810000AE00268816A5268C2F308020A80816A7B
:10382000891C08E0026972B10268526802F07F02E6
:103830000A70816A491C8162C18D491E0904090C04
:10384000C18503D019E002685268F1E70168CA68CF
:1038500022F02002CA600168CA6822F48072CA603D
:1038600001684A6922F001024A61202180F83E1075
:10387000016B012903D0FFF7CDFD002008BD002119
:1038800001630168CA6822F01002CA6001680A6810
:10389000D20602D50A6849680091818DFFF7FEFBC8
:1038A000EBE7000070B5044600680169E26821F4A6
:1038B0004051114301612169A068084361690843CF
:1038C0002168CA6841F20C639A430243CA602068C7
:1038D0004169A26921F44071114341611E49206888
:1038E000884202D1FFF7F0F901E0FFF7DDF900EBC4
:1038F000C00101EB0012606864218000B2FBF0F3AC
:10390000B3FBF1F36FF018067343B2FBF0F5B2FBB3
:10391000F0F605EB8305322303EB0515B5FBF1F556
:10392000B6FBF1F605F0F00505EB0615B2FBF0F677
:10393000B2FBF0F0B0FBF1F06FF01802504306EB71
:10394000800003EB0010B0FBF1F0216800F00F00E5
:103950002844886070BD0000003801408162828583
:10396000C28500210164222280F83E2080F83C10AC
:103970000168CA6842F48072CA6001684A6942F00C
:1039800001024A610068C16841F02001C160002065
:1039900070472DE9F041984617460E460446069DAD
:1039A0001DE0681C1BD02DB1FFF746F8A0EB080006
:1039B000A84214D92068C16821F4D071C160206880
:1039C000416921F001014161202084F83D0084F823
:1039D0003E00002084F83C000320BDE8F081206810
:1039E000006836EA000004D00020B842D9D0002098
:1039F000F3E70120F9E700000148FFF751BB0000A1
:103A0000FC0100200148FFF74BBB000040020020F2
:103A1000FEE7490050EAC12018BF04204A0D18BF34
:103A200040F0010040F2FF72B2EB515F08BF40F07E
:103A30000200012808BF052070470907090E002869
:103A400004DB00F1E02080F80014704700F00F0064
:103A500000F1E02080F8141D704730380A2801D2A8
:103A600001207047002070477047000004490A6831
:103A70005206FCD5024AC1B2121D11607047000007
:103A800000380140FEF7E6FFFFF74AFEFFF7D2FDE0
:103A9000FFF708FEFFF722FE01222D492D48FFF710
:103AA000A3FC2DA0FFF76CFE31A0FFF769FE33A049
:103AB000FFF766FE35A0FFF763FEFEF735FD38A081
:103AC000FFF75EFEFEF75EFC39A0FFF759FEFEF73A
:103AD0009FFC3AA0FFF754FE3C4D3D4F3D4C002665
:103AE00028680028FCD02E603B4A3CA02168FCF7E7
:103AF000F7FB42A13848FCF7EDFD08B141A01DE0FD
:103B000046A13548FCF7E6FD08B146A016E04BA1FA
:103B10003148FCF7DFFD98B12D4B4AA11B1D1A1F40
:103B20002D48FCF713FDD7E900124AA0FCF7D8FB9B
:103B3000786801280AD0052808D050A0FCF7D0FBEF
:103B4000FF212548FCF7D8FD2660C9E753A0F5E71B
:103B500010000020FC010020756172743220696E33
:103B6000697420737563636573730D0A0000000048
:103B7000574149545F4F50454E0D0A004F50454E36
:103B80005F4D4F55444C450D0A0000004669626385
:103B90006F6D5F4C3631305F696E69740D0A0000DD
:103BA000436865636B5F736F636B65740D0A000038
:103BB00043726561745F5443500D0A00437265613E
:103BC000745F54435020656E640D0A000C000020A1
:103BD0000400002014000020FC0000202075617209
:103BE000745F7278202072785F636E74205B256446
:103BF0005D203A20257320200000000054455354D6
:103C00003100000020756172745F727820746573F2
:103C1000743120737563636573730A00544553549C
:103C20003200000020756172745F727820746573D1
:103C3000743220737563636573730A002B434552B6
:103C400045473A002B43455245473A2025642C25E9
:103C50006400000020756172745F72782063657281
:103C600065675F6E5B25645D202063657265675FD5
:103C7000737461745B25645D0A00000020756172D5
:103C8000745F727820526567697374726174696FCA
:103C90006E206661696C5C6E0000000020756172C8
:103CA000745F7278202052656769737472617469F9
:103CB0006F6E20737563636573730A0010B5002916
:103CC0000AD00878002807D005487844FDF772FE2E
:103CD000002801D0002010BD0248784410BD00002B
:103CE0008A0100008201000010B500290AD008787E
:103CF000002807D005487844FDF75CFE002801D075
:103D0000002010BD0248784410BD00007A01000078
:103D100072010000FDF7B3B8FDF7E8B9000000003C
:103D2000000000000102030406070809000000006B
:103D3000010203040400000800000000000000026B
:103D40000001000010000000000000000000000062
:103D500030313233343536373839414243444546C1
:103D600040305800303132333435363738396162BB
:103D7000636465664030780030313233343536372D
:103D8000383961626364656678700030313233348B
:103D900035363738394142434445465850000000D3
:103DA00002400000000000A00000000005400000EC
:103DB000000000C8000000000C4000000000409C13
:103DC00000000000194000000020BCBE0000000000
:103DD00034400000BFC91B8E00000004B540000045
:103DE000504BCFD06607E2CF010000006C410000CD
:103DF0003E8251AADFEEA73401000000D942000044
:103E0000DCB5A0E23A301F97FFFFFFFFB44500008A
:103E1000FD25A0C8E9A3C14FFFFFFFFFFF3F000042
:103E20000000008000000000FF3F00000000008054
:103E300000000000803F0008000000203400000067
:103E40006C010008B43F000834000020B4080000F2
:103E5000880100081C00000043000000F8FFFFFF7D
:103E60000C0000000E0000000F0000002E000000FB
:103E70001001000043000000F8FFFFFF0040404039
:103E8000404040404040414141414140404040402D
:103E900040404040404040404040404040050202D9
:103EA0000202020202020202020202020220202098
:103EB00020202020202020020202020202029090F4
:103EC00090909090101010101010101010101010F2
:103ED0001010101010101010020202020202888846
:103EE0008888888808080808080808080808080852
:103EF000080808080808080802020202400000003A
:103F000000000000000000000000000000000000B1
:103F100000000000000000000000000000000000A1
:103F20000000000000000000000000000000000091
:103F30000000000000000000000000000000000081
:103F40000000000000000000000000000000000071
:103F50000000000000000000000000000000000061
:103F60000000000000000000000000000000000051
:103F70000000000000000000000000000000000041
:103F80000000000000000000000000000000000031
:103F90000000000000000000000000000100000020
:103FA00010000000000000000024F40000000000E9
:043FB000000000000D
:0400000508000131BD
:00000001FF
